:100000005DC0000079C0000077C0000075C000002E
:1000100073C0000071C000006FC000006DC0000020
:1000200009C7000069C0000067C0000065C000008B
:1000300063C0000061C000005FC000005DC0000040
:100040005BC0000059C0000057C0000055C0000050
:1000500053C0000051C000004FC000004DC0000060
:100060004BC0000049C0000047C0000045C0000070
:1000700043C0000041C000003FC000003DC0000080
:100080003BC0000039C0000037C000008106A10657
:100090008906BD06E706C206C906E706D10693062D
:1000A000D806E006650769076D07710782077507BF
:1000B000820782077B07820782077F0711241FBE02
:1000C000CFEFD0E1DEBFCDBF13E0A0E0B1E0E2E8CA
:1000D000F2E100E00BBF02C007900D92AC3CB1070B
:1000E000D9F723E0ACECB3E001C01D92A93DB20703
:1000F000E1F7D2D50C943F0983CFF89461D5E4E6BB
:10010000F0E080818061808382B18F7782B983B192
:10011000806883B98AB780688ABF89B7806889BFD9
:100120001FBC8EB585608EBD8EB58D7F8EBD8AB3AA
:100130008F638ABB8BB3807C8BBB87B38F6387BB9A
:1001400088B3807C88BBE1E6F0E080818F638083A8
:10015000E2E6F0E08081807C808381B38F6381BBA5
:1001600082B3807C82BB84B38F6384BB85B3807C85
:1001700085BB82B18F6382B98BB3807C8BBB82B12C
:10018000806482B983B1806483B97894089510D56E
:10019000E091CF03F0E0EE0FFF1FE853FC4F4081EA
:1001A000518160E470E084E090E054C5089500D58A
:1001B000E091CF03F0E0EE0FFF1FE054FC4F4081D1
:1001C000518160E470E080E090E044D5E091CF039D
:1001D000F0E03296EE0FFF1FE054FC4F408151815A
:1001E00060E170E080E090E035C50895E1D4E091F1
:1001F000CF03F0E0EE0FFF1FE055FC4F408151812F
:1002000060E070E080E090E025D5E091CF03F0E081
:100210003296EE0FFF1FE055FC4F4081518160E4A4
:1002200070E080E090E016D5E091CF03F0E03496E6
:10023000EE0FFF1FE055FC4F4081518160E170E0FF
:1002400080E090E007C50895B3D4E091CF03F0E0DB
:10025000EE0FFF1FE855FC4F4081518160E470E0D4
:1002600080E090E0F7D4E091CF03F0E03296EE0F1B
:10027000FF1FE855FC4F4081518160E170E080E054
:1002800090E0E8D480E395E705C0E8ECF0E0319732
:10029000F1F701970097C9F708958F929F92AF9257
:1002A000BF92CF92DF92EF92FF920F931F93CF9363
:1002B000DF93C82F8C3008F0A2C0082F10E0F8019F
:1002C000EE0FFF1FE057FC4F4081518160E070E06E
:1002D0008EE090E0BFD4C63080F42AB381E090E095
:1002E0000C2E02C0880F991F0A94E2F7922F982BC8
:1002F0009ABB9BB3892B8BBB11C027B3A801465077
:10030000510981E090E002C0880F991F4A95E2F7F9
:10031000922F982B97BB98B3892B88BBF801EE0FCF
:10032000FF1FE057FC4F4081518160E470E08EE098
:1003300090E090D483B18F7B83B982E08A95F1F706
:1003400083B1806483B98090100190901101A090D6
:100350001201B090130120E030E04AEF54E4C501EF
:10036000B401D3D66B017C0120E030E040E85FE3CC
:100370004BD6882304F120E03FEF4FE757E4C70155
:10038000B601BFD618169CF420E030E040E251E4FC
:10039000C501B401BAD63CD606C088EC90E00197FE
:1003A000F1F76150710961157105B9F709C0C7010D
:1003B000B6012ED602C061E070E0CB010197F1F7E3
:1003C000C63068F42BB381E090E00C2E02C0880F99
:1003D000991F0A94E2F7809582238BBB0DC028B346
:1003E0000650110981E090E002C0880F991F0A951C
:1003F000E2F78095822388BB8CE08C0FA5C0D4EFF8
:10040000D80FDC3008F09EC00D2F10E0F801EE0F81
:10041000FF1FE858FC4F4081518160E170E08EE0A1
:1004200090E018D4D630A0F4E1E6F0E0208181E03D
:1004300090E00D2E02C0880F991F0A94E2F7922FC8
:10044000982B9083E2E6F0E09081892B808311C0A5
:1004500021B3A8014650510981E090E002C0880F05
:10046000991F4A95E2F7922F982B91BB92B3892B53
:1004700082BB83B18F7B83B982E08A95F1F783B128
:10048000806483B98090100190901101A0901201B6
:10049000B090130120E030E04AEF54E4C501B4010C
:1004A00034D66B017C0120E030E040E85FE3ACD55E
:1004B000882304F120E03FEF4FE757E4C701B6017E
:1004C00020D618169CF420E030E040E251E4C5014B
:1004D000B4011BD69DD506C088EC90E00197F1F7DA
:1004E0006150710961157105B9F709C0C701B601FD
:1004F0008FD502C061E070E0CB010197F1F7D630F3
:1005000078F4E2E6F0E0208181E090E00D2E02C078
:10051000880F991F0A94E2F78095822380830DC08B
:1005200022B30650110981E090E002C0880F991FA4
:100530000A95E2F78095822382BBDB3021F085EFBC
:100540008C0F02C001C088E1DF91CF911F910F9104
:10055000FF90EF90DF90CF90BF90AF909F908F90E3
:100560000895CF93C82F24D3E091CF03F0E0EE0F8E
:10057000FF1FE459FC4F4081518160E070E080E052
:1005800090E068D344E151E060E470E081E090E005
:1005900061D34CE151E060E170E081E090E05AD33A
:1005A000E091CF03F0E03496EE0FFF1FE459FC4FCB
:1005B0004081518160E570E081E090E04BD36C2F89
:1005C00070E040E950E080E090E05BD3CF91089587
:1005D000803429F0803531F18031B1F513C040E22B
:1005E00050E060E470E080E090E04BD340E950E000
:1005F00060E170E080E090E044D381E08093CF033D
:1006000080E1089540E250E060E170E080E090E039
:1006100038D340E950E060E570E080E090E031D30D
:1006200080E5089540E250E060E570E080E090E011
:1006300028D340E950E060E470E080E090E021D30E
:100640001092CF0380E408950895B2D2E091CF03D1
:10065000F0E0EE0FFF1FE859FC4F4081518160E44C
:1006600070E080E090E0F6D288E99AE305C0E8EC1B
:10067000F0E03197F1F701970097C9F7089598D204
:10068000E091CF03F0E0EE0FFF1FE05AFC4F4081F6
:10069000518160E070E080E090E0DCD2E091CF0337
:1006A000F0E03296EE0FFF1FE05AFC4F408151817F
:1006B00060E470E080E090E0CDD244E251E060E49C
:1006C00070E088E090E0C6C20895FC0190819F5FD1
:1006D00090839C3009F41082E081F0E0EE0FFF1F60
:1006E000E057FC4F4081518160E470E088E090E089
:1006F000B1C20895CF93C82F5BD2E091CF03F0E051
:10070000EE0FFF1FE05AFC4F4081518160E070E026
:1007100080E090E09FD2E091CF03F0E03296EE0FC0
:10072000FF1FE05AFC4F4081518160E470E080E09F
:1007300090E090D2EC2FF0E0EE0FFF1FE057FC4F5F
:100740004081518160E470E088E090E083D246EC23
:1007500051E060E470E08AE090E07CD2E091CF0369
:10076000F0E0EE0FFF1FEC5AFC4F4081518160E139
:1007700070E081E090E06ED2E091CF03F0E034963B
:10078000EE0FFF1FEC5AFC4F4081518160E570E095
:1007900081E090E05FD240E950E060E170E080E00D
:1007A00090E06FD2CF910895CF93DF93EC018881D1
:1007B000803119F0803591F021C040E250E060E1D5
:1007C00070E080E090E05DD240E950E060E570E0EC
:1007D00080E090E056D280E5888310C040E250E08F
:1007E00060E570E080E090E04CD240E950E060E1EC
:1007F00070E080E090E045D280E18883DF91CF9186
:1008000008958F929F92AF92BF92CF92DF92EF9214
:10081000FF92CF93C82FE091CF03F0E03296EE0F16
:10082000FF1FEC5AFC4F4081518160E170E081E094
:1008300090E010D2C63080F42AB381E090E00C2E14
:1008400002C0880F991F0A94E2F7922F982B9ABB47
:100850009BB3892B8BBB12C027B34C2F50E0465063
:10086000510981E090E002C0880F991F4A95E2F794
:10087000922F982B97BB98B3892B88BB83B18F7B22
:1008800083B982E08A95F1F783B1806483B980905F
:10089000100190901101A0901201B090130120E07E
:1008A00030E04AEF54E4C501B4012FD46B017C0160
:1008B00020E030E040E85FE3A7D3882304F120E0A4
:1008C0003FEF4FE757E4C701B6011BD418169CF45D
:1008D00020E030E040E251E4C501B40116D498D3E1
:1008E00006C088EC90E00197F1F76150710961153D
:1008F0007105B9F709C0C701B6018AD302C061E02A
:1009000070E0CB010197F1F7C63068F42BB381E0BA
:1009100090E00C2E02C0880F991F0A94E2F7809590
:1009200082238BBB0FC028B34C2F50E04650510997
:1009300081E090E002C0880F991F4A95E2F7809508
:10094000822388BBC63098F4E1E6F0E0208181E0A4
:1009500090E002C0880F991FCA95E2F7922F982B5A
:100960009083E2E6F0E09081892B808313C041B34D
:100970008C2F90E0069721E030E0B90102C0660FAD
:10098000771F8A95E2F7CB01942F982B91BB92B3F6
:10099000892B82BB83B18F7B83B982E08A95F1F783
:1009A00083B1806483B9CF91FF90EF90DF90CF90B7
:1009B000BF90AF909F908F900895CF93C82FE091F4
:1009C000CF03F0E0EE0FFF1FEC5AFC4F4081518146
:1009D00060E170E081E090E03DD1C63070F4E2E685
:1009E000F0E0208181E090E002C0880F991FCA9555
:1009F000E2F780958223808310C042B38C2F90E071
:100A0000069721E030E0B90102C0660F771F8A9592
:100A1000E2F7CB018095842382BBCF9108958BB3FD
:100A200080648BBB85E0982F9A95F1F79BB39F7BF1
:100A30009BBB8A95F1F708958BB380648BBB85E0EF
:100A4000982F9A95F1F79BB39F7B9BBB8A95F1F703
:100A500008958AB3807F8ABB8BB38F778BBB8BB3B0
:100A600080688BBB85E88A95F1F78BB380648BBB7C
:100A700085E08A95F1F7CB99FECF8BB38F7B8BBB4B
:100A800085E08A95F1F7CBCF0895E4E6F0E0808128
:100A9000807F808385B38F7785BB8BB380688BBB6A
:100AA00085E88A95F1F78BB380648BBB85E08A95E6
:100AB000F1F78091630083FDFCCF8BB38F7B8BBB01
:100AC00085E08A95F1F7B8CF0895CF93DF93C82FCB
:100AD000D62FBFDF8AB38F608ABBDD2321F08BB3B3
:100AE00080688BBB03C08BB38F778BBB8BB38F7747
:100AF0008BBB8BB3807F8BBB9BB38C2F86958F700A
:100B0000892B8BBBD5E88D2F8A95F1F788DF8BB3C6
:100B1000807F8BBB2BB38C2F90E0880F991F880FA1
:100B2000991F880F991F8F70822B8BBBDA95F1F775
:100B300076DFDF91CF91089561E0C7DF80E090E03C
:100B400008950F931F93CF93DF93082FC62F9DDF38
:100B5000E4E6F0E080818F608083CC2321F085B3D0
:100B6000806885BB03C085B38F7785BB8BB38F77D8
:100B70008BBBC5E6D0E08881807F88838881902FF9
:100B800092959F70892B888315E8812F8A95F1F7BC
:100B900053DF8881807F888388810F70082B0883CA
:100BA0001A95F1F749DFDF91CF911F910F910895C9
:100BB00060E081E0C6DF80EA9FE00197F1F70895E9
:100BC000CF9380E593EC0197F1F7E4E6F0E08081C4
:100BD0008F6080838AB3806C8ABB84B3806884BB57
:100BE000808180618083E5E6F0E010821BBA15BA4F
:100BF0008081836080838BB380788BBB85B38F7754
:100C000085BB1ADFC8E78C2F8A95F1F715DF8C2F8B
:100C10008A95F1F711DFCA95F1F760E070E088E29C
:100C200090E08FDF60E070E088E090E08ADFC0DF76
:100C300060E070E086E090E084DF60E070E08CE0EF
:100C400090E07FDF80E091E09093D6038093D5031E
:100C5000CF9108950F931F93CF938A01860F60E081
:100C600080686FDFC0E003C0CF5F61E06ADFF8013A
:100C7000EC0FF11D80818111F7CFCF911F910F9162
:100C80000895CF93C42F860F60E080685ADF61E03B
:100C90008C2F57DFCF91089530DA84E190E0C9D2EC
:100CA0008093CF038F3F31F41092CF0360E084E153
:100CB00090E0D8D28091CF03882319F0813029F0B9
:100CC00007C080E48093D20303C080E18093D20305
:100CD0005EDA80E395E705C0E8ECF0E03197F1F7E4
:100CE00001970097C9F763DAE091D1038E2F90E066
:100CF000FC013497EC30F10508F069C0EA5BFF4F66
:100D00008FC28091D20390E02CDC85E08093D103E8
:100D10005EC08091D20390E05BDC8093D20385E0DB
:100D20008093D10354C08091D003882311F088317F
:100D300021F43DDA1092D1034AC081E08093D103BF
:100D400046C08091CE03813009F041C08CB59DB57D
:100D500086389E4108F43BC08091D203803531F43F
:100D600084E190E066D28093CF0331C06EDC609165
:100D7000CF0384E190E065D22AC081DC88E08093D3
:100D8000D10325C08DEC93E0A0DC88E08093D103F3
:100D90001EC08091CD0390E0ADDC8BE08093D10349
:100DA00016C08FE091E000DD8BE08093D1030FC08F
:100DB0008091CD0390E025DD8BE08093D10307C0C7
:100DC0008091CD0390E0F9DD8BE08093D103809199
:100DD000D103813019F0833009F086CFE5E6F0E0E9
:100DE0008081806180838091D103813061F4FED95C
:100DF0000AC090E052DA8093D0038091D103823010
:100E000031F0843021F08091D003883191F7E5E60C
:100E1000F0E080818F7E80838091D103813019F052
:100E2000833009F061CF10DAC2D91092D103109249
:100E3000D0035ACF1F920F920FB60F9211240BB608
:100E40000F922F933F934F936F937F938F939F9323
:100E5000AF93BF93EF93FF9380910E018130C9F45C
:100E600010920E0189B78F7789BF8AB7806C8ABFCD
:100E700089B7806889BF8091D103853019F481E0FA
:100E80008093CE031DBC1CBC80E69AEE0197F1F75F
:100E9000A9C08111A7C081E080930E0189B78F7727
:100EA00089BF8AB780688ABF8AB78F7B8ABF89B7B4
:100EB000806889BFE091D1038E2F90E08C3091053E
:100EC00008F5FC01EE5AFF4FABC181E08093D103DE
:100ED00019C082E08093D10315C083E08093D103D1
:100EE00011C082E08093D1030DC086E08093D103CE
:100EF0001092CE0307C089E08093D10303C08CE039
:100F00008093D1038CB59DB586389E4108F466C0A8
:100F10008091D103893089F08C3099F0863009F0C6
:100F20005AC08091D203803521F487E08093D103A9
:100F300055C08DE08093D10351C08AE08093D103E6
:100F40004DC080910F01803119F0803591F046C07D
:100F50008091CC03811107C081E08093CC038EE0A7
:100F60008093D1033BC01092CC038FE08093D103D8
:100F700035C08DE08093D10380E180930F01809193
:100F8000CC03813029F58091CD03863080F4E2E6F0
:100F9000F0E0408121E030E0B90102C0660F771F28
:100FA0008A95E2F7CB018095842380830FC042B3FA
:100FB00090E0069721E030E0B90102C0660F771F8C
:100FC0008A95E2F7CB018095842382BB1092CC03F3
:100FD0001092CD0303C084E08093D10380E69AEEA3
:100FE0000197F1F7FF91EF91BF91AF919F918F9191
:100FF0007F916F914F913F912F910F900BBE0F906A
:101000000FBE0F901F9018952FD008F481E008951F
:1010100057D088F09F5790F0B92F9927B751A0F07B
:10102000D1F0660F771F881F991F1AF0BA95C9F77C
:1010300012C0B13081F05ED0B1E008955BC0672F7F
:10104000782F8827B85F39F0B93FCCF3869577952C
:101050006795B395D9F73EF4909580957095619515
:101060007F4F8F4F9F4F0895990F0008550FAA0B80
:10107000E0E8FEEF16161706E807F907C0F01216AB
:101080001306E407F50798F0621B730B840B950BAE
:1010900039F40A2661F0232B242B252B21F4089503
:1010A0000A2609F4A140A6958FEF811D811D0895A0
:1010B00057FD9058440F551F59F05F3F71F0479509
:1010C000880F97FB991F61F09F3F79F087950895EE
:1010D000121613061406551FF2CF4695F1DF08C00D
:1010E000161617061806991FF1CF8695710561052A
:1010F00008940895E894BB2766277727CB0197F9D2
:101100000895B2DF08F48FEF08950BD078C069D04E
:1011100028F06ED018F0952309F05AC05FC0112452
:10112000EACFC6DFA0F3959FD1F3950F50E0551F8E
:10113000629FF001729FBB27F00DB11D639FAA272C
:10114000F00DB11DAA1F649F6627B00DA11D661F7B
:10115000829F2227B00DA11D621F739FB00DA11D9C
:10116000621F839FA00D611D221F749F3327A00D56
:10117000611D231F849F600D211D822F762F6A2FF2
:1011800011249F5750408AF0E1F088234AF0EE0F77
:10119000FF1FBB1F661F771F881F91505040A9F784
:1011A0009E3F510570F014C0A6CF5F3FECF3983E10
:1011B000DCF3869577956795B795F795E7959F5FEB
:1011C000C1F7FE2B880F911D9695879597F9089585
:1011D00097F99F6780E870E060E008959FEF80ECEA
:1011E000089500240A94161617061806090608958D
:1011F00000240A9412161306140605060895092EF3
:101200000394000C11F4882352F0BB0F40F4BF2B61
:1012100011F460FF04C06F5F7F4F8F4F9F4F0895A1
:10122000EE0FFF1F0024001C0BBE0790F691E02D6F
:101230000994E199FECF9FBB8EBBE09A99278DB3AD
:101240000895262FE199FECF9FBB8EBBE09A0197B0
:101250000DB2021631F02DBB0FB6F894E29AE19A66
:101260000FBE0895262FE199FECF9FBB8EBB2DBBED
:101270000FB6F894E29AE19A0FBE01960895F89499
:02128000FFCF9E
:1012820000000002000000009C05000000000110A8
:1012920000007A44D0F3F1F1EAE8E900456E676CA8
:1012A20069736800203100E2EAEBFEF7E8F2FC2005
:1012B200007475726E206F6E202000E2FBEAEBFE76
:1012C200F7E8F2FC007475726E206F66662000E229
:1012D200FBF5EEE40065786974200020D0E5E6E8CD
:1012E200EC20EEF2EBE0E4EAE82020002044656224
:1012F200756767696E67206D6F64652000CAE0EDEF
:10130200E0EB20004368616E6E656C2000202020B7
:10131200D1EEF5F0E0EDE5EDEE20202020002020DA
:101322002020202053617665642020202020002088
:10133200202020D3F1F2E0E2EAE83A002020202047
:101342005365742075703A00D0E5E6E8EC20EEF2C1
:10135200EBE0E4EAE800446562756767696E67205E
:101362006D6F646500323500323600323700323834
:10137200003239003330003331003332003333006E
:101382003334003335003336003133003134003129
:101392003500313600313700313800313900323012
:1013A2000032310032320032330032340020320057
:1013B2002033002034002035002036002037002062
:1013C2003800203900313000313100202020C8E7B8
:1013D200ECE5F0E5EDE8E500204D656173757265B9
:1013E2006D656E7420697300202020E7E0EAEEED5F
:1013F200F7E5EDEE0020202066696E616C697A6582
:101402006400C8E7ECE5F0E5EDE8E52020202020C7
:101412002020004D6561737572656D656E742020C4
:1014220020202000D2E5F0ECEEEFE0F0E0202020DA
:101432002020202000546865726D6F636F75706C98
:10144200652020202000CDE0EFF0FFE6E5EDE8E5A5
:1014520031202020202000566F6C746167652023A4
:101462003120202020202000CDE0EFF0FFE6E5ED46
:10147200E8E532202020202000566F6C74616765F9
:101482002023322020202020200020CDE0E6ECE89E
:10149200F2E520EAEDEEEFEAF300202050757368E2
:1014A20020627574746F6E00202020E8E7ECE5F08E
:1014B200E5EDE8E50020206D6561737572656D6587
:1014C2006E7400C0CBDCD4C020313200414C4641A6
:1014D20020313200270131013B0145014F01550105
:1014E2005B016C017D0184018D019E01AF01BC0194
:1014F20014011C01C801D60109020C020F021202DA
:10150200150218021B021E022102240227022A02CD
:1015120024012D0230023302360239023C023F021C
:1015220042024502480251034B0258026802750208
:1015320082029302A402B502C602D702E802F902AD
:0C1542000A031A032803350343034C037B
:00000001FF
